:020000040800F2
:10000000A8CC0020059E0008FD9B0008FF9B00086F
:10001000019C0008039C0008059C000800000000EB
:10002000000000000000000000000000079C000825
:10003000099C0008000000000B9C00080D9C0008B3
:10004000259E0008299E00082D9E0008319E00086C
:10005000359E0008399E00083D9E0008419E00081C
:10006000459E0008499E00084D9E0008519E0008CC
:10007000559E0008599E00085D9E0008619E00087C
:10008000659E0008699E00086D9E0008719E00082C
:10009000759E0008799E00087D9E0008819E0008DC
:1000A000859E0008899E00088D9E0008919E00088C
:1000B000959E0008999E00089D9E0008A19E00083C
:1000C000A59E0008A99E0008AD9E00081B9C000884
:1000D000B19E0008B59E0008B99E0008BD9E0008AC
:1000E000C19E0008C59E0008C99E0008CD9E00085C
:1000F000D19E0008D59E0008D99E0008DD9E00080C
:10010000E19E0008219C0008E59E0008E99E000889
:10011000ED9E0008F19E0008F59E0008F99E00087B
:10012000FD9E0008019F0008279C00082D9C0008E8
:10013000059F0008099F00080D9F0008119F0008F7
:10014000159F0008199F00081D9F0008219F0008A7
:10015000399C00083F9C0008259F0008299F000843
:100160002D9F0008319F0008359F0008399F000827
:100170003D9F0008339C0008419F000800000000DC
:10018000459F0008499F000803E011F8013B00F873
:10019000013B13465A1E002BF7D17047130003D0C2
:1001A0000A46194601F0DABC704700E0401C90F99D
:1001B0000020002A18BF8A42F8D110467047F0B5D7
:1001C000002200230C24494D04FB03F677598FB11C
:1001D000D0F800C267450ED1761900F50077D6F841
:1001E00004C0D7F808E0F44502BF3689FF88BE4254
:1001F00001D103E001225B1C032BE5D3032B04D1C7
:1002000062B902290AD01220F0BD29B904FB0350BB
:100210004089B0F5807F01D11020F0BD0020F0BDF5
:10022000F0B5D0F80062314C00220C2300F50075C7
:1002300003FB02F73859B04201BF3F197868D5F87F
:1002400008E0704503D13F89E888874202D0521CFC
:10025000032AEDD3032A13D1002203FB02400068D6
:1002600010B1521C032AF8D3032A0ED003FB02F06C
:1002700006510019AE684660ED880581002545816C
:1002800003FB0240438929B10BB10020F0BD4FF4BC
:10029000807100E0591C4181501CF0BD401E0328B4
:1002A00014D20C214843114942185389B3F5807F79
:1002B00018BF002B02D10023538103E05B1E538142
:1002C0009BB20BB9002242500020704702207047B9
:1002D00010B50021054A0C234B439C58844204BFAF
:1002E00000249C50491C0329F5D310BD04AC002008
:1002F0002DE9F041804608F201260024F07800B391
:1003000098F8010208F5067501236F693A4601F075
:1003100098FA08B1012414E0F070A868D8F818120F
:10032000381A88420DD2B67809E0D8F81802C719F1
:1003300098F8010201233A4601F083FA761E022E54
:10034000F3D22046BDE8F08170B504460D46D4F8DE
:100350002C020026854211D02046FFF7C9FF060077
:100360000CD194F8010201232A46214601F052FCE7
:1003700010B14FF0FF350126C4F82C52304670BD45
:1003800038B50446FFF7B4FF05004FD194F80002DA
:10039000032804BF94F8050201283FD100F048F873
:1003A00001F0D4FB21465220207060706120A070C3
:1003B00001F0BEFBD4F8100284F8E801D4F8100272
:1003C0000004000E84F8E901D4F81002000C84F84F
:1003D000EA01D4F81002000E84F8EB01D4F80C0204
:1003E00084F8EC01D4F80C020004000E84F8ED014E
:1003F000D4F80C02000C84F8EE01D4F80C02000EC4
:1004000084F8EF01D4F81C02421CC4F82C2294F8A2
:10041000010201F005FC002084F80502002294F896
:100420000102002101F00AFC00B10125284632BD7D
:100430004FF4007200212046B0E6D0F81422891E45
:10044000921E914201D30020704790F80222D0F80A
:10045000280202FB010070472DE9F8430D46804653
:10046000022D51D308F50076706985424CD298F878
:1004700000024FF0FF37012804D045D303282CD0C9
:100480001CD341E0306A05EB550400F0B1F80028B8
:100490003BD1E005C00D641C10F80890306A00F0F4
:1004A000A7F890BBE005C00D10F8080049EA00214C
:1004B000E8075ABF0F053F0D0F0926E0306A00EB31
:1004C000152100F097F800BB6800C00508EBD0507C
:1004D0004178007840EA012717E0306A00EBD51137
:1004E00000F088F888B9A800C00508EBD0508278E1
:1004F000C178120442EA01614278007841EA02219F
:10050000084307013F0900E001273846BDE8F283B0
:100510002DE9F0410C4680461546022C65D308F5BE
:1005200000767069844260D298F80002012804D0F5
:100530005BD303283FD02FD357E0306A04EB540736
:1005400000EB572100F056F800284FD1F8057F1C2A
:1005500008EBD05114F001041DBF087800F00F0023
:1005600040EA05102846087001203071306A00EB1F
:10057000572100F03FF8002838D1F90508EBD15198
:100580000CB12A0906E00A782B0A02F0F00203F007
:100590000F031A430A7025E0306A00EB142100F0C3
:1005A00029F818BB6100C90508EBD1510D702D0465
:1005B0002A0E4A7016E0306A00EBD41100F01AF8E7
:1005C000A0B9A100C90508EBD151CA78120602F002
:1005D000704215432A040D70120E4A702A0C8A705C
:1005E0002A0ECA700121317100E00220BDE8F081BD
:1005F00000EB54214046A7E62DE9F0410C46804629
:10060000022C0DD308F504756868844208D20027CF
:1006100021464046FFF720FF060021D0012E01D1E0
:1006200002271DE016F1010F01D1012718E0002279
:1006300021464046FFF76CFF070011D1D8F81002A1
:1006400010F1010F08D0401CC8F8100298F80502FC
:1006500040F0010088F80502344668688442D7D328
:100660003846BDE8F0812DE9F04180460E0008F5DE
:10067000037507D1D8F80C4214B1A86884420ED390
:1006800001240CE0FFF7E8FE022838BF01203FD329
:1006900010F1010F3CD0A968884239D3344627466F
:1006A000A8687F1C874202D30227022C28D3394630
:1006B0004046FFF7D1FEE0B96FF070423946404640
:1006C000FFF726FF28B92EB13A4631464046FFF7DC
:1006D0001FFFB8B9C8F80C72686810F1010F16D086
:1006E000401E686098F8050240F0010088F8050295
:1006F0000DE010F1010F18BF012809D0A742CFD19A
:10070000002005E001280CBF4FF0FF3701273846D5
:10071000BDE8F081D0F82422D0F8000290F802025F
:10072000490A121DB1FBF0F001E0401A121D52F807
:10073000041B09B9002070478842F6D211680818D6
:1007400070472DE9F041804608F500760D46F580AA
:10075000B768012F30D0D8F8000200F500714A695F
:10076000974229D227B990F80002032801D14F6A95
:1007700027B9088985421FD2486A1BE0887804019E
:1007800000E02D1BD8F80002A542394610D3FFF730
:1007900063FE074617F1010F01D1012019E0022F76
:1007A0000AD3D8F80002D0F814028742E9D303E054
:1007B000FFF743FEF76008B902200AE000EB1510CE
:1007C000306105F00F00D8F8001201EB40107061A5
:1007D0000020BDE8F0812DE9F041804608F5007564
:1007E0000C46E888461C30041CBF2869002822D02B
:1007F00016F00F0F68D1401C2861E968D8F8000294
:1008000021B9B0F8080286425ED314E090F80222C3
:10081000521E12EA161F57D1FFF71EFE0746022F7F
:1008200014D317F1010F43D0D8F80002D0F81412F6
:100830008F4244D30CB904204FE0E968FFF713FF5F
:10084000070008BF072048D0012F01D1022044E053
:1008500017F1010F2CD0D8F80002FFF749FD38BB83
:10086000D8F800024FF4007200F0A1FAD8F80002A4
:100870003946FFF7E2FDD8F80012C1F82C02002437
:1008800007E0D8F80002D0F82C12491CC0F82C124E
:10089000641CD8F8000290F802128C420AD201219E
:1008A00080F80412D8F80002FFF722FD0028E8D0F3
:1008B000012012E0D0F82C12091BC0F82C12EF60B6
:1008C000394601F02AF82861EE8006F00F00D8F8CA
:1008D000001201EB401068610020BDE8F081CA7E83
:1008E0008B7E90F8000243EA0222032805D1487D5E
:1008F000097D41EA002042EA0042104670478176B5
:100900000A04120EC276090C0175090A4175704776
:100910007CB5164604461D460B22FFF735FC062D16
:1009200012D3308880B136F8020B102100F001029A
:1009300002EB45054008EA0344BF85F4883585F09D
:100940002105491EF2D1ECE7072000A905F00F02AE
:100950003032D2B23A2AA8BFD21D4254401E2D09CD
:10096000F4D17E224254002200E0521C824202D284
:10097000135D202BF9D113465A1C08283ABF455C59
:10098000401C20251D55082AF5D373BD00210B22DC
:100990000B46C90101EB530110F8013B5918C9B2CC
:1009A000521EF5D1084670472DE9F14F82B0002163
:1009B000FFF7C7FE5FEA000817D1FF2000904FF64F
:1009C000FF7A029800F50074FF27A4F824A002988B
:1009D0002169D0F80002FFF7B7FC5FEA000804D1F4
:1009E0006669307810B94FF0040879E0F17A01F0C7
:1009F0003F01E52869D00A0702D50F2965D101E03A
:100A00000F294AD1D4F82080B8F1000F60D04106F8
:100A100006D5717B009100F0BF00E188A1840746F4
:100A2000FFB2B84202BF0098717B884222D1307871
:100A300020F04000401E0D2101FB00F900254FF081
:100A4000010B0FF24C30285C8119805D497840EA37
:100A50000120BBF1000F0FD001F019F98346B9F165
:100A6000FF0F07D238F8190001F011F909F1010957
:100A7000834503D0FF272BE05045FBD16D1C0D2D86
:100A8000DFD33078400606D5BBF1000F1CBF38F825
:100A900019000028EED17F1E1AE0FFB22FB9009F87
:100AA0003046FFF773FF87421AD0A069C17AC907A1
:100AB0000BD40B2100220B46591E2BB116F8012B2B
:100AC00010F8013BD21AF6D052B1FF27A4F824A0A7
:100AD00000210298FFF77FFE5FEA00083FF477AF3E
:100AE0004046BDE8FE8F2DE9FA4E8246FF26B3460A
:100AF00004274FF6FF750FF298290AF50074216953
:100B000000295ED0DAF80002FFF71EFC070058D17A
:100B10006069017809B9042754E0C27A02F03F0203
:100B2000E52918BF2E2952D022F02003082B0CBF34
:100B300001230023DDF800C0634548D10F2A48D1C6
:100B40004A0606D590F80DB0E288A28401F0BF01F4
:100B50000E46F6B2B14204BF417B8B4537D10278D5
:100B6000216A02F03F02521E0D235A4300234FF028
:100B7000010C13F809E00EEB00071EF800E07F7887
:100B80004EEA0727BCF1000F07D0FF2A3EBFBC4644
:100B900021F812C0521C02D319E0AF4217D15B1CDE
:100BA0000D2BE6D30078400604D5FF2A0FD2002093
:100BB00021F81200761E00215046FFF70CFE0700B8
:100BC0009DD00FB1002020613846BDE8F68EFF268B
:100BD000F1E7F6B20EB1A584F6E7FFF7D7FE83453D
:100BE000F2D0F8E72DE9FE4F814609F500750C2299
:100BF000AE692F6A314600A8FFF7C6FA0DF100086A
:100C000098F80B00C0071FD50020F072286201245D
:100C100023463A4600A93046FFF77AFE4846FFF7DA
:100C2000C3FE5FEA000A02D1641C642CF0D3642C7A
:100C300008BF072000F0AA80BAF1040F40F0A4809A
:100C400098F80B00F0722F6298F80B0080070CD513
:100C5000002400E0641C37F814000028FAD104F1E5
:100C600019000D21B0FBF1F600E0012600214846F5
:100C7000FFF767FD98B9002700F092F878B9696925
:100C80000978E5291CBF0029002702D17F1CB74243
:100C900008D001214846FFF79EFD0028ECD004282B
:100CA00008BF07205FEA000A54D1761E55D0E888B5
:100CB000811B4846FFF745FD5FEA000A4AD1A86953
:100CC000FFF764FE07464FF6FF780FF2C40400F00A
:100CD00067F85FEA000A3DD169692A6A4F730F23FA
:100CE000CB72F0B200230B738B76CB764FF00D0CEA
:100CF000431E0CFB03FE002301E0C44503D032F881
:100D00001EC00EF1010E13F804A00AF801C08A44B7
:100D10004FEA2C2B8AF801B0BCF1000F08BFC44683
:100D20005B1C0D2BE9D3C4451ABF32F81E20002AE4
:100D300040F0400008700120D9F8001281F8040248
:100D400000214846FFF747FD5FEA000A02D1761E00
:100D5000BDD102E0BAF1000F16D100F021F85FEA30
:100D6000000A11D100F021F8A96968690B22FFF788
:100D70000BFAA8696969C07A00F0180008730120AD
:100D8000D9F8001281F804024FFA8AF0BDE8FE8F0C
:100D900001030507090E10121416181C1E0000008E
:100DA0002969D9F80002FFF7CFBA6869202200212B
:100DB000FFF7F4B9F8B5044604F500754FF6FF7077
:100DC000A98CEE88814208BF314600F0ABFD0700D8
:100DD0001CD12969D4F80002FFF7B6FA070012D136
:100DE000FFF7E3FF6969E52008700120D4F80012DD
:100DF00081F80402E888B04208D200212046FFF7BB
:100E0000EAFC0700E5D0042F08BF02273846F2BDF0
:100E10002DE9F84F0C468046266800E0761C96F9CE
:100E200000002F2818BF5C28F8D0D8F820020FF255
:100E3000C01A00904FF00009002514E0B9F1FF0F2F
:100E40002FD20121F8B200F007FF070029D0802F30
:100E500004DA39465046FFF7A8F910BB009820F88D
:100E6000197009F10109AF57BFB26D1C202F03DBC8
:100E70002F2F18BF5C2FE1D1A8192060202FACBF05
:100E8000002404240AE0009800EB490030F8027CBA
:100E9000202F18BF2E2F06D1A9F10109B9F1000F9B
:100EA000F1D1062065E00099002021F819000B22FD
:100EB000D8F818022021FFF771F9002500E06D1C19
:100EC000009830F81500202818BF2E28F7D00DB153
:100ED00044F00304009800EB490030F8020C2E287F
:100EE00002D0B9F10109F5D10026B2464FF0080B46
:100EF00000E00446009830F815706D1C7FB144F096
:100F00000300202FF5D02E2F01D14D45F1D15E45A4
:100F100001D24D453CD1BBF10B0F2CD10446D8F882
:100F200018020278E52A04BF05220270BBF1080FFF
:100F300008BF4FEA8A0A0AF00C000C2819BF0AF011
:100F40000300032844F00200C4B2A0070DD40AF045
:100F50000300012804BF44F01000C4B20AF00C00E2
:100F6000042804BF44F00800C4B2D8F81802C472C0
:100F70000020BDE8F28F4D4518BF0446A94521BFAA
:100F80004D4608264FF00B0B4FEA8A0AB2D2C6E74D
:100F9000802F0EDB0021384600F05EFE070004D0F3
:100FA0000FF25800381810F8807C44F00200C4B2E8
:100FB0002FB139460FF2C400FFF7F7F820B144F023
:100FC00003005F27C4B20DE0A7F141001A2838BF23
:100FD0004AF0020A06D3A7F161001A283CBF4AF082
:100FE000010A203FD8F818023754761C82E7000027
:100FF000222A3A3C3E3F7C7F00000000809A9041CC
:101000008E418F804545454949498E8F9092924F38
:10101000994F555559999A9B9C9D9E9F41494F5573
:10102000A5A5A6A7A8A9AAABAC21AEAFB0B1B2B393
:10103000B4B5B6B7B8B9BABBBCBDBEBFC0C1C2C3F8
:10104000C4C5C6C7C8C9CACBCCCDCECFD0D1D2D3E8
:10105000D4D5D6D7D8D9DADBDCDDDEDFE0E1E2E3D8
:10106000E4E5E6E7E8E9EAEBECEDEEEFF0F1F2F3C8
:10107000F4F5F6F7F8F9FAFBFCFDFEFF2B2C3B3DEF
:101080005B5D000032B5044691F900002F2812BFC5
:101090005C28481C009004F500750020A8600098AA
:1010A00090F90000202809D200F03BFC0021696182
:1010B00032BDD4F80002FFF712FCA86000A9204658
:1010C000FFF7A6FE90B92046FFF76EFCA969C97A22
:1010D00001F0040120B1042808BF002906D104E072
:1010E00021B96969C87AC006E3D4052032BD10B5BC
:1010F00002684FF0FF31C2B1134600E05B1C93F968
:101100000040202C01D33A2CF8D13A2C0CD112F902
:10111000014B303C0A2C08D29A4206D1022C04D250
:101120005A1C2146026000E00021084610BD38B577
:10113000044604F2FE150020A8714FF0FF30C4F8F9
:101140002C022046FFF700F908B1032032BD687871
:1011500094F8FE1141EA00204AF65521884201D058
:10116000022032BD04F23601DFF854054B788A784C
:101170001B0243EA024294F836301A43824208D0F6
:101180008A7F4B7F097F1B0243EA0242114381425F
:1011900001D1002032BD012032BD2DE9F0430546CA
:1011A00085B00020286014460846FFF7A0FF07001E
:1011B00048BF0B2006D4DFF80C8508EB8700466893
:1011C0000EB90C2060E12E6096F8000250B196F83E
:1011D000010200F007FDC10704D4002C01D0400734
:1011E00010D450E1002086F8000286F8017296F8CB
:1011F000010200F000FDC10748BF032003D41CB169
:10120000400701D50A203FE1002700213046FFF7C3
:101210008EFF0446012C29D1002000AD06EB001101
:1012200001F2BE110A7952B18B7ACA7A1B0443EAE1
:1012300002624B7A097A42EA0322114300E000215C
:1012400045F82010401C0428E8D3B94655F8297009
:1012500027B139463046FFF76AFF00E0022004005C
:1012600004D009F10109B9F1040FEFD3032C08BF31
:101270000120C8D0002C01BF307BF17A41EA002068
:10128000B0F5007F1AD1F07DB17D51EA00200DD17B
:1012900096F8261096F82700090441EA006096F8AF
:1012A000251040EA012096F824100843C6F81802D9
:1012B000317C86F80312012918BF022976D14843F0
:1012C000717B86F80212002970D04A1E11426DD13E
:1012D000B27C737C43EA02220F23A6F808221A424A
:1012E00064D1337DF47C54EA03240DD196F8224076
:1012F00096F82330240444EA036396F8214043EA35
:10130000042396F820401C43F37BB57B55EA032366
:101310004CD0C51805EB1215AC4247D3641BB4FB87
:10132000F1F1002942D0012440F6F67E714528BF34
:1013300002244FF6F67E714528BF0324891CC6F8A7
:101340001412C6F81C72D919C6F82012E919C6F889
:101350002812032C12D14ABB96F82E1096F82F00B3
:10136000090441EA006096F82D1040EA012096F841
:101370002C100843D6F8141289000EE0B2B1D6F84A
:1013800020124018D6F81412022C0FBF490001EBAE
:10139000410201F0010101EB5201C6F8240201F201
:1013A000FF11D6F81802B0EB512F01D20D206BE0DF
:1013B0004FF0FF30C6F81002C6F80C02802086F805
:1013C0000502032C01BF96F8310096F8301041EA6F
:1013D000002001284BD1791C3046FEF7B5FF0028CC
:1013E00045D186F8050296F8FE1196F8FF0141EA0C
:1013F00000204AF65521884239D1B178F07800F0C2
:1014000046F8717840EA012031780843AE498842B5
:101410002DD196F8E61196F8E70100F038F896F825
:10142000E51140EA012096F8E4110843A7498842F3
:101430001DD196F8EA1196F8EB0100F028F896F81D
:10144000E91140EA012096F8E8110843C6F81002B5
:1014500096F8EE1196F8EF0100F019F896F8ED11F4
:1014600040EA012096F8EC110843C6F80C0286F811
:101470000042B8F80000401CA8F80000A6F80602D8
:101480003046FEF725FF002005B0BDE8F0830904D3
:1014900041EA0060704780B500281CBFD0F80012F8
:1014A00000290ED091F800225AB101F50071B0F870
:1014B0000402CA88824204D1487800F093FBC00736
:1014C00001D5092002BD002002BD73B582B01446CB
:1014D000009100A8FFF70BFE002848BF0B201FD487
:1014E000784901EB80056E682EB13046FEF7F0FEBC
:1014F000002086F80002029808B9686009E0002020
:10150000029981F8000202986860029808B1012CE3
:1015100001D0002004E0002203A902A8FFF73DFE4D
:1015200004B070BD2DE9F243ADF5876D5FEA0008A8
:1015300008BF092000F0C0800020C8F8000202F0B7
:101540001F06FFA806F0FE0200F0EFF9040067D1C5
:10155000FFA800F1100500F0E2FA6F6904000AD15B
:101560000FB9062407E016F0FE0118BF012183A879
:10157000FEF725FE04461C20064271D0002C67D0E1
:10158000042C10D1002052490C2202FB00121268D8
:1015900012B1401C0328F7D303280EBF122083A8E2
:1015A000FFF720FB04466F6946F00806BCBB300716
:1015B0003BD500F0EFFD01460004B973000EF8734F
:1015C000080C3874080E787439460020F8723877A1
:1015D0007877B877F877DDF80C04FFF780F9814663
:1015E00000213846FFF78BF9DDF80C14012081F853
:1015F0000402B9F1000F14D0DDF80C04D0F82C521D
:101600004946FEF7F9FF040009D1DDF80C04A9F101
:101610000101C0F80C122946FEF796FE0446002C84
:1016200049D1300748BF46F02006DDF80C04D0F859
:101630002C0208F5007516F0FE01E8612F6218BF54
:10164000012183A8FEF7ECFDA862B0B9022432E0C4
:101650001121F87A08420ED17007A8D508242AE093
:10166000002CDCD1F87AC10648BF042423D4B1078A
:10167000D7D5C007D5D507241DE0AE710020E8718D
:101680003946DDF80C643046FFF729F92861B97F47
:10169000F87F090441EA0060797F40EA0120397F40
:1016A0000843E8600020A860A8616862C8F800628A
:1016B000B6F80602A88020460DF23C4DBDE8F08346
:1016C0004641540080AC0020525261417272416127
:1016D00004AC00202DE9F84F81461F4600203860F9
:1016E000924688464846FFF7D6FE002804D109F501
:1016F0000074E07908B140B28DE0A079C00758BF0E
:101700000720F9D5E068A168401A504517D88246ED
:1017100015E0A66100F081F855468A4588BF0D4660
:1017200000EB09012A464046FEF72EFDA068281866
:10173000A060A844386828183860AAEB050ABAF1F6
:10174000000F67D0A168C805E4D1D9F8000290F86D
:1017500002325B1E03EA5122D5B28DB909B9206964
:1017600008E0626A1AB14846FEF7D4FF02E06169F8
:10177000FEF772FE022806D310F1010F47D0606118
:1017800000F051F808B9022042E02E185FEA5A2B07
:1017900023D0D9F8000200F201210BEB05024978B1
:1017A000914238BFA1EB050B90F801025B4632462F
:1017B000414600F02FFA50BBA07940060AD5A06937
:1017C000801B584506D24FF40072494608EB402072
:1017D000FEF7DAFC4FEA4B25A8E7A269B24298D09F
:1017E000A079400608D5D9F8000200F021F870B9B8
:1017F000A07900F0BF00A0710123D9F8000290F891
:1018000001023246494600F005FA0028E7D00120DF
:10181000E07100E00020BDE8F28FA068C005C00DB7
:10182000C0F5007170476169D9F80002FEF705BE86
:1018300090F801020123494600F0F2B990F8010244
:101840000123414600F0ECB970B50446FFF723FED2
:10185000002846D104F50075A9798A0641D54806C5
:1018600008D500F03FF808B1012070BDA87900F05C
:10187000BF00A871E969D4F80002FEF765FD80BBDE
:101880002E6AF07A40F02000F072E8683077E8685D
:101890000004000E7077E868000CB077E868000E6E
:1018A000F07730462969FFF72AF800F073FCB0752D
:1018B0000104090EF175010C3176000E70760020DE
:1018C000B074F074A87900F0DF00A8710120D4F89A
:1018D000001281F80402D4F80002BDE87040FEF75F
:1018E0004FBD70BDD4F80002AA6990F8010201232F
:1018F000214600F095B910B50446FFF7A5FF58B989
:101900002046FFF7C8FD38B9D4F82802FEF7C6FC18
:1019100010B90021C4F8001210BDD8F80002FEF77B
:101920008CBD00212046FEF70CBF0DF587611030FD
:10193000FFF733BC31B5ADF5CC6D40F23460012218
:101940000DF5CC616844FFF728FC00284CD140F22B
:1019500034646C4400A8A06103A82062FFA8DDF8ED
:1019600060163830FFF78EFB20B9FFA8022138300F
:10197000FEF725FC002837D164690CB9062033E056
:10198000E07AC0071CD4DDF834062146FEF7A7FF35
:10199000050019D0E07AC00616D5FFA94FF40A72E7
:1019A000383183A8FEF7F0FBCDF81454022183A848
:1019B000FEF7C7FEC0B9002183A8FFF794F808B965
:1019C000072011E004280FD1FFA83830FFF7F2F903
:1019D00028B92DB1DDF834062946FEF70DFE18B9F9
:1019E000DDF83406FEF7CCFC0DF2646D30BD73B546
:1019F000ADF5CF6D40F24C6001220DF5CF6168442A
:101A0000FFF7CBFB002817D1DDF84C06CDF82404F6
:101A100040F24C646C4400A8A06109A82062FFA8B1
:101A2000DDF878165030FFF72DFB20B9FFA8022112
:101A30005030FEF7C4FB00286ED1606908B904205D
:101A40006AE000F10B01152203A8FEF79DFBFFA938
:101A50004FF40A72503189A8FEF796FB40F27C6081
:101A60006844FFF744FB002807D4DDF87C1689A8FA
:101A7000FFF708FB18B908204EE00B204CE00428C3
:101A80004AD189A8FFF7AEF8002845D1FFAD283527
:101A900013226E690DF10E0106F10D00FEF774FBC5
:101AA0009DF80C0040F02000F0720120DDF84C168B
:101AB00081F80402F07AC00625D5A068A96888429A
:101AC00021D0DDF84C4631462046FEF708FF01469E
:101AD0002046FEF7B2FC08B902201DE00146204670
:101AE000FEF732FCDDF84C1601F12006A0B9707843
:101AF0002E2808D1A9683046FEF701FFDDF84C1604
:101B0000012081F80402FFA85030FFF753F918B9FB
:101B1000DDF84C06FEF734FC0DF5D06D70BD00A865
:101B2000A86103A8286283A8DDF83814FFF7AABAD1
:101B30004120E070722084F8E40184F8E50141203E
:101B400084F8E601612084F8E7017047552084F8A5
:101B5000FE010123AA2084F8FF01704762F30F22DF
:101B600062F31F42401810F0030308D0C91A1FD3B4
:101B7000DB0748BF00F8012D28BF20F8022D130015
:101B800030B414461546103928BF20E93C00FAD875
:101B9000490728BF20E90C0048BF40F8042D890000
:101BA00028BF20F8022D48BF00F8012D30BC704737
:101BB000C91818BF00F8012DCB0728BF00F8012D68
:101BC000704750F8041B61B150F8042BD30744BF91
:101BD000A9F101039A18002342F8043B091FFAD126
:101BE000EFE7704701461B4A881802EB81014968FC
:101BF000007B496808470146164A8B5C002043B9C0
:101C000001208854881802EB81014968007B09682B
:101C10000847704738B500F009F8A468A04732BDFE
:101C200038B500F003F8E468A04732BD0446094D1A
:101C3000601905EB84046468007B704710B50346A7
:101C4000044C181904EB83035B68007B1B69BDE837
:101C50001040184754AC0020802817DB0FF24C03CB
:101C600049B1FF2801DD0020704703EB4000A0F5DB
:101C700080700088704733F81120904203D0491CCF
:101C800089B28029F7DB01F18000C0B270470021E2
:101C90000FF2181200E0491C32F811302BB19842B3
:101CA000F9D10FF2E82030F811007047C700FC00AE
:101CB000E900E200E400E000E500E700EA00EB00F4
:101CC000E800EF00EE00EC00C400C500C900E6002B
:101CD000C600F400F600F200FB00F900FF00D60099
:101CE000DC00A200A300A500A7209201E100ED0006
:101CF000F300FA00F100D100AA00BA00BF001023DF
:101D0000AC00BD00BC00A100AB00BB00912592253A
:101D10009325022524256125622556255525632511
:101D2000512557255D255C255B2510251425342577
:101D30002C251C2500253C255E255F255A2554258C
:101D400069256625602550256C256725682564254D
:101D5000652559255825522553256B256A251825B3
:101D60000C25882584258C2590258025B103DF004E
:101D70009303C003A303C303B500C403A6039803DE
:101D8000A903B4031E22C603B50329226122B100B0
:101D90006522642220232123F7004822B000192263
:101DA000B7001A227F20B200A025A00061006200C7
:101DB00063006400650066006700680069006A00EF
:101DC0006B006C006D006E006F007000710072009F
:101DD00073007400750076007700780079007A004F
:101DE000A100A200A300A500AC00AF00E000E1004C
:101DF000E200E300E400E500E600E700E800E900B7
:101E0000EA00EB00EC00ED00EE00EF00F000F10066
:101E1000F200F300F400F500F600F800F900FA0013
:101E2000FB00FC00FD00FE00FF00010103010501B5
:101E3000070109010B010D010F011101130115012A
:101E4000170119011B011D011F012101230125019A
:101E5000270129012B012D012F013101330135010A
:101E600037013A013C013E01400142014401460173
:101E700048014B014D014F015101530155015701DB
:101E800059015B015D015F0161016301650167014A
:101E900069016B016D016F017101730175017701BA
:101EA0007A017C017E019201B103B203B303B40352
:101EB000B503B603B703B803B903BA03BB03BC0346
:101EC000BD03BE03BF03C003C103C303C403C503F3
:101ED000C603C703C803C903CA033004310432046C
:101EE00033043404350436043704380439043A041E
:101EF0003B043C043D043E043F04400441044204CE
:101F000043044404450446044704480449044A047D
:101F10004B044C044D044E044F045104520453042A
:101F20005404550456045704580459045A045B04D5
:101F30005C045E045F04702171217221732174219D
:101F4000752176217721782179217A217B217C21C5
:101F50007D217E217F2141FF42FF43FF44FF45FF5A
:101F600046FF47FF48FF49FF4AFF4BFF4CFF4DFF2D
:101F70004EFF4FFF50FF51FF52FF53FF54FF55FFDD
:101F800056FF57FF58FF59FF5AFF0000410042001B
:101F900043004400450046004700480049004A000D
:101FA0004B004C004D004E004F00500051005200BD
:101FB00053005400550056005700580059005A006D
:101FC0002100E0FFE1FFE5FFE2FFE3FFC000C10009
:101FD000C200C300C400C500C600C700C800C900D5
:101FE000CA00CB00CC00CD00CE00CF00D000D10085
:101FF000D200D300D400D500D600D800D900DA0032
:10200000DB00DC00DD00DE007801000102010401DC
:10201000060108010A010C010E0110011201140150
:10202000160118011A011C011E01200122012401C0
:10203000260128012A012C012E0130013201340130
:10204000360139013B013D013F0141014301450199
:1020500047014A014C014E01500152015401560101
:1020600058015A015C015E01600162016401660170
:1020700068016A016C016E017001720174017601E0
:1020800079017B017D0191019103920393039403F4
:10209000950396039703980399039A039B039C0364
:1020A0009D039E039F03A003A103A303A403A50311
:1020B000A603A703A803A903AA031004110412048A
:1020C00013041404150416041704180419041A043C
:1020D0001B041C041D041E041F04200421042204EC
:1020E00023042404250426042704280429042A049C
:1020F0002B042C042D042E042F04010402040304D9
:102100000404050406040704080409040A040B0473
:102110000C040E040F0460216121622163216421FB
:10212000652166216721682169216A216B216C2163
:102130006D216E216F2121FF22FF23FF24FF25FF48
:1021400026FF27FF28FF29FF2AFF2BFF2CFF2DFF4B
:102150002EFF2FFF30FF31FF32FF33FF34FF35FFFB
:1021600036FF37FF38FF39FF3AFF000010B5064C45
:10217000064804F1080100F028F86070211D0448A9
:1021800000F021F8207010BD74AC0020F09D000814
:10219000DC9D00080020704710B5194B00249860A2
:1021A0005C705A73312006E010B5154B002458605E
:1021B0001C701A73302008703A2048702F208870E5
:1021C0000020C87010BD0022E6E70022ECE710B541
:1021D0000B4A937B012173B190F900003038C0B2F3
:1021E00002EB80035C6834B10021801859600173F0
:1021F000907B401E9073084610BD0021E7E7000069
:1022000054AC002000F5E0700268914203D34368AB
:102210009A18914202D380680028F5D17047DFF800
:102220002407016891B9DFF820274FF480318160DD
:102230004FF4805141604FF0FF31C16001610421D2
:102240004161C2F8BC11DFF804170160012070473A
:1022500001F1080313F0070305D001F10803C3F1EE
:10226000080303F007035918D21A8161C26042F0D3
:1022700001034B60511828234B60DFF8C816096929
:10228000C16170472DE9F84F044601F1080010F0D4
:10229000070005D001F10800C0F1080000F00700B8
:1022A00000EB010B02F1080010F0070005D002F16D
:1022B0000800C0F1080000F007008618A6EB0B002C
:1022C000A0EB030803EB0B0743F00300CBF804007B
:1022D000B74228BF01F0F6F93079C00758BF01F0C6
:1022E000F1F9B8F1100F38BF01F0ECF9A06986429E
:1022F00007D1E0684044E060A76140F001007860E9
:102300005AE16069864208D1A0684044A0606761D4
:1023100040F001017960C0514EE1706800F00301A6
:10232000012940F0AD80C0084FEAC00920283BD207
:10233000D6F808A0F5680090AE4208BF01F0C2F9D7
:10234000564508BF01F0BEF970680099C008C0008A
:10235000B0EBC10F18BF01F0B5F9009804EBC00055
:1023600000F128018A4508D021698A45C0F084809F
:10237000DAF80C10B14240F07F80554506D1009A42
:102380002068012191408843206077E02830854211
:1023900005D0206985426FD3A868B0426CD1CAF8D5
:1023A0000C50C5F808A069E0F568D6F818A0B54249
:1023B0000CD0B0682169884223D3C168B14204BF00
:1023C000A968B1421DD1C560A8601CE006F11400E7
:1023D000056835B906F110000568A5B101E00846A9
:1023E000056805F114010A68002A02BF05F1100111
:1023F0000A68002AF3D12169884202D300210160D2
:1024000001E001F05FF9BAF1000F37D0F06904EB99
:10241000800000F5987001688E4209D1056028009F
:1024200014D1F2696068012191408843606025E021
:102430002069824508D3DAF81000B04214BFCAF808
:102440001450CAF8105001E001F03CF9B5B1206910
:10245000854211D3C5F818A0316929B1814226BF40
:1024600029618D6101F02EF9706938B121698842C6
:1024700002D36861856101E001F024F94E44C8444B
:1024800070684008400070604FEAD80548F00100CD
:10249000786048F80780202D21D204EBC50000F1B8
:1024A0002806B146B8F1100F38BF01F00BF92068CB
:1024B00020FA05F1C90704D40121A940084320608E
:1024C00006E0B068216988422CBF814601F0FAF825
:1024D000B760C9F80C70C7F80890FE606CE05FEA5E
:1024E000182008BF002123D0B0F5803F28BF1F214E
:1024F0001ED2A0F58071090C01F008018840A0F5FA
:102500008052120C02F004029040A0F580431B0C94
:10251000C1F10E0103F00203891AC91A984001EBB8
:10252000D030C11D28FA01F101F0010101EB400199
:10253000F96100227A613A6104EB8100626822FA53
:1025400001F300F59870DB0706D4012303FA01F1CB
:102550001143616007601CE01F2900680EBF002165
:102560004908C1F1190108FA01F100E0104642687A
:10257000D208D200424510D0CA0F00EB820202F10D
:10258000100349001A68002AF0D121698B4211D347
:102590001F60B861FF60BF600EE0226981689042F1
:1025A00028BF914206D3CF608760B960F8600020F1
:1025B000B86101E001F086F80BF10800BDE8F28F88
:1025C0002DE9F04F0546DFF87C03006883B08846AC
:1025D00008B9FFF724FEDFF86C03806800EB080100
:1025E0002F31401E21EA0000804580F0A881D5F8F7
:1025F000B81141B1D5F8B0218018824280F09F8196
:102600008142C0F09C8101F061F800281EBF0446A1
:10261000076814F1010F00F09281D5F8B001381865
:10262000C5F8B001D5F8B411814238BF0146C5F8EC
:10263000B411A86988BB286908B1844200D22C6112
:10264000C5F8C041C5F8C4710020C5F8CC0105F13A
:102650002801BC48006868624FF0FF302862002003
:10266000C960896001F10802801CD260103192605B
:102670002028F5D3B448854203D1A7F1280221468A
:1026800025E055F8040CC00805EBC000A0F10801D6
:102690003819401AA0F1280219E005F5E071084642
:1026A00000E08068B8B142680368D2189442F8D15B
:1026B000027B12070FD4AA699A420CD346683344AE
:1026C0009A4208D2B9194160E868A9693A182846BF
:1026D000FFF7BEFD1EE12869844238BF2C61084621
:1026E000391900E0806880B102688A42FAD1017B22
:1026F00009070AD4046043464168791841602846B6
:10270000214603B0BDE8F04FBCE5AE69314628462E
:10271000FFF778FD41680068081801902F3800F134
:10272000080111F0070105D000F10801C1F108010D
:1027300001F00701081806F11001884234BF009625
:102740000090009800F1080900F1180A04F108014E
:102750004FF0000BA7F1280011F0070105D004F19C
:102760000801C1F1080101F007010A19401AAA6124
:10277000E86040F0010151608018282141607148F3
:102780000069E86119F0070018BF00F09BFF00998D
:102790001B20486005F5E070B0E80E10A9E80E10A7
:1027A000C5F8C041C5F8C471A9F11001C5F8CCB194
:1027B000C5F8C811019800E08A460722CAF804202B
:1027C0000AF104010A1D0BF1010B8242F4D3BBF1A3
:1027D000020FB8BF00F076FF0098B04200F09A8078
:1027E000801B81194FEAD0094A68520852004A609A
:1027F00040F0010171608051B9F1200F1FD205EB4B
:10280000C90101F128042746102838BF00F05AFFFB
:10281000286820FA09F1C90705D4012101FA09F154
:102820000843286006E0A068296988422CBF074653
:1028300000F048FFA660FE60B760F4606AE0010A3D
:1028400008BF002223D0B1F5803F28BF1F221ED22F
:10285000A1F58072120C02F008029140A1F580539C
:102860001B0C03F004039940A1F58044240CC2F131
:102870000E0204F00204D21A121BA14002EBD13165
:10288000CA1D20FA02F202F0010202EB4102F261DB
:1028900000237361336105EB82016B6823FA02F454
:1028A00001F59871E40705D4012090401843686051
:1028B0000E601CE01F2A09680EBF00225208C2F1F8
:1028C000190200FA02F200E019464B68DB08DB004F
:1028D000834210D0D30F01EB830303F110045200A5
:1028E0002368002BF0D12869844211D32660B1619E
:1028F000F660B6600EE02A698868914228BF90426F
:1029000006D3C6608E60B060F1600020B06101E067
:1029100000F0D8FEE868804511D2A0EB0800E8601E
:1029200040F00100A96908EB0102AA61506048F07B
:102930000300486003B001F10800BDE8F08F0020FB
:1029400000F030BC28AC002084A600206859883CE8
:102950002DE9F84F044688460026C8F1000B5FEACF
:10296000182008BF002123D0B0F5803F28BF1F21C9
:102970001ED2A0F58071090C01F008018840A0F575
:102980008052120C02F004029040A0F580431B0C10
:10299000C1F10E0103F00203891AC91A984001EB34
:1029A000D030C11D28FA01F101F0010101EB400115
:1029B00004EB8100D0F8300130B31F290EBF002294
:1029C0004A08C2F1190208FA02F2002300E052009C
:1029D0004568ED08ED00A5EB08055D4503D2064608
:1029E0005FEA050B0CD045694FEAD27E00EB8E0002
:1029F000002D00691CBF85422B460028E7D11846F0
:102A000000283AD1002E3AD10120884040004142AE
:102A100008436168084000F05F8141420840411E60
:102A2000080B00F0100021FA00F2510901F0080132
:102A3000CA40930803F00403DA40550805F0020584
:102A40000818EA401818C2F3400E2844704422FACD
:102A50000EF1081804EB8000D0F830010DE00846B4
:102A60004168C908C900A1EB080159453CBF8B4624
:102A7000064601690029F2D140690028F0D1002EF4
:102A800000F02A81A068A0EB0800834580F0248133
:102A900020698642C0F01E817068C00808EB0B09EF
:102AA000C00008EB0605484518BF00F00BFEAE421B
:102AB00080F01081F768D6F818A0B7420CD0B06843
:102AC0002169884223D3C168B14204BFB968B142C9
:102AD0001DD1C760B8601CE006F11400076837B963
:102AE00006F110000768A7B101E00846076807F182
:102AF00014010A68002A02BF07F110010A68002ABF
:102B0000F3D12169884202D30021016001E000F085
:102B1000D9FDBAF1000F38D0F06904EB800000F560
:102B2000987001688E4209D10760380014D1F269AB
:102B30006068012191408843606026E020698245F9
:102B400008D3DAF81000B04214BFCAF81470CAF8FB
:102B5000107001E000F0B6FDBFB12069874212D3CA
:102B6000C7F818A0306930B12169884226BF3861A2
:102B7000876100F0A7FD706938B12169884202D3EE
:102B80007861876101E000F09DFDBBF1100F09D273
:102B900049F00300706009EB0600416841F0010153
:102BA000416096E048F0030070604BF001006860FF
:102BB0004BF805B04FEADB0020281DD204EBC00122
:102BC00001F12807216821FA00F2BB46D20705D49B
:102BD000012202FA00F00843206006E0B86821698B
:102BE00088422CBF834600F06DFDBD60CBF80C50D1
:102BF000C5F808B0EF606CE05FEA1B2008BF002159
:102C000023D0B0F5803F28BF1F211ED2A0F58071D0
:102C1000090C01F008018840A0F58052120C02F066
:102C200004029040A0F580431B0CC1F10E0103F09B
:102C30000203891AC91A984001EBD030C11D2BFA42
:102C400001F101F0010101EB4001E96100226A613B
:102C50002A6104EB8100626822FA01F300F59870A2
:102C6000DB0706D4012303FA01F11143616005601B
:102C70001CE01F2900680EBF00214908C1F119019D
:102C80000BFA01F100E010464268D208D2005A4522
:102C900010D0CA0F00EB820202F1100349001A683B
:102CA000002AF0D121698B4211D31D60A861ED602B
:102CB000AD600EE022698168904228BF914206D340
:102CC000CD608560A960E8600020A86101E000F0A7
:102CD000F9FC07E100F0F6FC01E12DE9F84F0446AC
:102CE0008846606841420840411E080B00F0100011
:102CF000C1404A0902F00802D1408B0803F00403E6
:102D0000D9404D0805F002051018E9401818C1F324
:102D1000400628443018F140081804EB8000D0F831
:102D200030014168C908C9000646A1EB080A09E05C
:102D300008464168C908C900A1EB080151453CBFDC
:102D40008A46064601690029F2D140690028F0D17F
:102D500020698642C0F0C1807068C00808EB0A098B
:102D6000C00008EB060B484518BF00F0ABFC5E4501
:102D700080F0B380F768B569B7420CD0B0682169BC
:102D8000884223D3C168B14204BFB968B1421DD1A2
:102D9000C760B8601CE006F11400076837B906F197
:102DA00010000768A7B101E00846076807F11401A1
:102DB0000A68002A02BF07F110010A68002AF3D14D
:102DC0002169884202D30021016001E000F07AFC11
:102DD000002D34D0F06904EB800000F59870016894
:102DE0008E4209D10760380011D1F2696068012173
:102DF00091408843606022E02069854205D32869BC
:102E0000B04214BF6F612F6101E000F05BFCB7B10D
:102E10002069874211D3BD61306930B12169884290
:102E200026BF3861876100F04DFC706938B12169B7
:102E3000884202D37861876101E000F043FCBAF177
:102E4000100F09D249F00300706009EB06004168D9
:102E500041F0010141603FE048F0030070604AF03A
:102E60000100CBF804004AF80BA0D4F808804FEA20
:102E7000D805202D28BF00F025FCB8F1000F27D081
:102E8000D4F81490009504EBC50000F128052F46F6
:102E9000B8F1100F38BF00F015FC2068009920FA37
:102EA00001F1C90705D4009A01219140084320602F
:102EB00006E0A868216988422CBF074600F002FCA2
:102EC000C5F80890C7F80C90C9F80870C9F80C50FC
:102ED000C4F808A0C4F814B004E000F0F3FB00202C
:102EE000BDE8F28F06F10800BDE8F28F2DE9F04F42
:102EF00083B00546C046C046DFF8C047F52D80F0D8
:102F000006810B2D31BF102705F10B00C008C7004B
:102F10002068FE08F04010F0030F42D0C04300F0DC
:102F20000100861904EBC60000F12808F700D8F864
:102F300008506868C008C000B84218BF00F0C2FB63
:102F4000D5F80890454508BF00F0BCFB4D4508BFCB
:102F500000F0B8FB6868C008C000B84218BF00F0B5
:102F6000B1FBC84505D120680121B14088432060EC
:102F70000DE02069814508D3D9F80C00A84204D19E
:102F8000C8F80890C9F80C8001E000F09BFB47F0FE
:102F90000300686078190835416841F0010141601B
:102FA000FDE0A168B94280F0C480002800F0A6804E
:102FB000012505FA06F149004A42B0401143084094
:102FC00041420840411E080B00F01000C1404A0970
:102FD00002F00802D1408B0803F00403D9404E08E8
:102FE00006F002061018F1401818C1F34008301816
:102FF000404421FA08F101EB000804EBC80000F19D
:1030000028094FEAC80AD9F808607068C008C000EB
:10301000504518BF00F056FBD6F808B04E4508BF23
:1030200000F050FB5E4508BF00F04CFB7068C00824
:10303000C000504518BF00F045FBD94505D12068B8
:1030400005FA08F1884320600DE02069834508D324
:10305000DBF80C00B04204D1C9F808B0CBF80C90F2
:1030600001E000F02FFB47F00300AAEB07087060B7
:10307000BF1948F00100786048F80780D4F808903C
:103080004FEAD90ABAF1200F28BF00F01BFBB9F1B3
:10309000000F2DD060690090CDF804A004EBCA00A9
:1030A00000F1280AD346B9F1100F38BF00F00AFB2F
:1030B0002068019920FA01F1C90705D4019905FAA0
:1030C00001F10843206007E0DAF80800216988422E
:1030D0002CBF834600F0F6FA0098CAF80800009862
:1030E000CBF80C000098C0F808B00098C0F80CA00D
:1030F000C4F80880676106F1080550E06068C0B355
:1031000039462046FFF7E9FD050012D047E015F1EA
:10311000400F28BF4FF0FF370BD205F10B00C0085E
:10312000C700606828B139462046FFF711FC05004A
:1031300035D1A168B9421CD3CA1B6069102A0AD3D1
:1031400039186161A26042F001034B60525047F0B0
:10315000030141600AE00022A260626141F00302C3
:10316000426009184A6842F001024A6000F108050D
:1031700015E0E06887420DD2C01BA169E0607A18B3
:10318000A26140F00100506001F1080547F0030022
:10319000486004E039462046FFF712FA0546C0466B
:1031A000C046284603B0BDE8F08F00B970472DE94E
:1031B000F047A0F10804C046C046DFF80055286972
:1031C0008442C0F07582616801F00302012A00F0B8
:1031D0006F82CA084FEAC20808EB0409CA0737D44D
:1031E000226811F0030F00F0658251420C199044DF
:1031F0008442C0F05D8269698C4200F0D880D608B4
:10320000202E70D2D4F80CA0A768544508BF00F057
:1032100059FABC4208BF00F055FA6068C008C00007
:10322000B0EBC60F18BF00F04DFA05EBC60000F179
:1032300028018F4205D029698F4251D3F968A142F4
:103240004ED1BA453DD128680121B140884328605C
:103250004C4580F02D82D9F80400C10740F1288246
:10326000810700F17A81A969894540F0B580E86855
:10327000AC614044E86040F00101616069698C42E2
:1032800002D100216961A960E969814280F012825E
:10329000DFF82C04006808B9FEF7C1FFA96900290E
:1032A00000F00882E868292824BF2846FEF7AAFF14
:1032B000E869E968884280F0FD814FF0FF30E861FD
:1032C000F8E12830824506D02869824508D3DAF82B
:1032D0000800A04204D1C7F80CA0CAF80870B7E7EC
:1032E00000F0F0F9B4E7E768A669A7420BD0A1683F
:1032F000814222D3C868A04204BFB868A0421CD152
:10330000CF60B9601BE004F114010F6837B904F114
:1033100010010F689FB101E011460F6807F1140218
:103320001368002B02BF07F110021368002BF3D1C2
:10333000814202D30020086001E000F0C3F9002EB2
:1033400086D0E06905EB800000F5987001688C423A
:1033500009D10760380011D1E26968680121914004
:103360008843686074E72869864205D33069A042C3
:1033700014BF7761376101E000F0A4F9002F3FF43A
:1033800067AF28698742ABD3BE61216929B1814209
:1033900026BF39618F6100F095F9606900283FF41C
:1033A00057AF296988429BD37861876150E799F8C4
:1033B000040000F0030003287FF44AAFC5F808803A
:1033C000D9F8040040084000C9F8040048F00100A2
:1033D000606048F804806DE16969894508D1A86892
:1033E0006C614044A86040F001016160005161E1FE
:1033F000C008C0004FEAD00A8044BAF1200F36D28C
:10340000D9F80C70D9F80860B94508BF00F05AF92E
:10341000B14508BF00F056F9D9F80400C008C00053
:10342000B0EBCA0F18BF00F04DF905EBCA0000F170
:1034300028018E4206D029698E42C0F08180F16851
:1034400049457DD1B74206D12868012101FA0AF128
:103450008843286076E02830874205D02869874273
:103460006ED3B86848456BD1F760BE606AE0D9F8A2
:103470000C70D9F818604F450DD0D9F808002969AB
:10348000884223D3C168494504BFB96849451DD165
:10349000C760B8601CE009F11400076837B909F18A
:1034A00010000768A7B101E00846076807F114019A
:1034B0000A68002A02BF07F110010A68002AF3D146
:1034C0002969884202D30021016001E000F0FAF886
:1034D000002E37D0D9F81C0005EB800000F598705D
:1034E000016889450AD10760380012D1D9F81C203B
:1034F0006868012191408843686023E0286986421A
:1035000005D33069484514BF7761376101E000F0A9
:10351000D9F8BFB12869874212D3BE61D9F810101B
:1035200029B1814226BF39618F6100F0CBF8D9F80B
:10353000140038B12969884202D37861876101E0BB
:1035400000F0C0F848F00100606048F80480686945
:1035500084420BD1C5F80880ACE040084000C9F8AF
:10356000040048F00100606048F804804FEAD80782
:10357000202F22D205EBC70000F128094E46B8F1F2
:10358000100F38BF00F09EF8286820FA07F1C9072D
:1035900004D40121B9400843286007E0D9F80800A5
:1035A000296988422CBF064600F08CF8C9F808400B
:1035B000F460A660C4F80C907CE05FEA182008BFB5
:1035C000002123D0B0F5803F28BF1F211ED2A0F5D7
:1035D0008071090C01F008018840A0F58052120C9E
:1035E00002F004029040A0F580431B0CC1F10E01D3
:1035F00003F00203891AC91A984001EBD030C11DAB
:1036000028FA01F101F0010101EB4001E161002222
:103610006261226105EB81006A6822FA01F300F51C
:103620009870DB0706D4012303FA01F111436960A6
:1036300004601CE01F2900680EBF00214908C1F189
:10364000190108FA01F100E010464268D208D200E0
:10365000424510D0CA0F00EB820202F1100349006C
:103660001A68002AF0D129698B4211D31C60A0612D
:10367000E460A4600EE02A698168904228BF91420C
:1036800006D3CC608460A160E0600020A06101E00E
:1036900000F018F8286A401E28620BD1D5F8C8013E
:1036A00000E080680028FCD14FF0FF30286201E084
:1036B00000F008F8C046C046BDE8F08784A60020A8
:1036C00028AC0020012000F017B800000749086866
:1036D00008B1002070470648C008C00008600549CE
:1036E000C908C900091A0160704700BFA0AC0020DA
:1036F000AFCC0020A8DC002080B5C046C046024AFE
:1037000011001820ABBEFBE72600020000F0BFBF8F
:103710001CB5059C0194049C009401F051F913BD63
:103720000000000000000000000000000000000099
:103730000000000000000000000000000000000089
:103740000000000000000000000000000000000079
:103750000000000F80380FFE380F80380000000096
:103760000000000000000000000000000000010058
:10377000000600000C0000380000310000060000C8
:103780000C000038000030000000000000000000C5
:1037900061800067F807F980006180006180006146
:1037A000800061800067F807F980006180000000F8
:1037B00000000000000001C0E003E0F00630080453
:1037C00018081FFFFE040E080787F00381E00000C1
:1037D0000000000001F000060C00040408060C7054
:1037E00001F9C0000E00003BE000EC1807080804D7
:1037F0000C180003E00000000001E00007F003F8EF
:1038000018041C0804170807E1D003C0E00023B027
:10381000003C08002008000010000000000000012B
:1038200000003100003200001C0000000000000019
:103830000000000000000000000000000000000088
:103840000000000000000000000000000000000078
:103850007F0001FFC00780F00C001810000420005A
:10386000020000000000002000021000040C0018FC
:103870000780F001FFC0007F000000000000000092
:103880000000000000000000000000004200006690
:1038900000006600003C0000180003FFC000180094
:1038A000003C0000660000660000420000000000CE
:1038B000080000080000080000080000080001FFE0
:1038C000C000080000080000080000080000080010
:1038D00000000000000100003100003200001C0068
:1038E00000000000000000000000000000000000D8
:1038F00000000000000000000800000800000800B0
:10390000000800000800000800000800000800008F
:103910000800000800000000000000000000000097
:1039200038000038000038000000000000000000EF
:103930000000000000000000000000000000000087
:10394000000600001C000070000180000E0000381E
:103950000000C0000700001C000030000000000054
:10396000000000007F8001FFE00380700600180463
:10397000000804000806001803807001FFE0007FC3
:1039800080000000000000000000010008010008A5
:1039900001000803FFF807FFF80000080000080016
:1039A000000800000000000000000001C03802C054
:1039B00058040098040118040218040418061C187E
:1039C00003F81801E0F8000000000000000000010A
:1039D000C0E003C0F0040008040808040808061842
:1039E0000803F41801E7F00001E000000000000007
:1039F000000000000300000D000011000061000045
:103A0000810803010807FFF80FFFF8000108000113
:103A1000080000000000000000E007FCD0060808D5
:103A2000061008061008061008061838060FF006DB
:103A300007C0000000000000000000003F8001FF00
:103A4000E003843002081804100804100804100869
:103A5000071810030FF00007C0000000000000006E
:103A6000000003C0000700000600000600F806077B
:103A7000F806180006E0000700000600000000003D
:103A800000000001E1E003F7F00634100418080418
:103A90001808040C08040C0806161803F3F001C1FA
:103AA000E000000000000000F80003FC30030638CE
:103AB0000402080402080402080404100308F001C8
:103AC000FFC0007F000000000000000000000000B8
:103AD00000000000000000007038007038007038EE
:103AE00000000000000000000000000000000000D6
:103AF000000000000000000000000000301A00304C
:103B00001C00000000000000000000000000000099
:103B10000000000000000008000014000022000067
:103B200041000080800100400200200400100800D5
:103B3000080000000000000021000021000021001A
:103B400000210000210000210000210000210000D0
:103B5000210000210000000000000000000008001B
:103B60000804001002002001004000808000410095
:103B70000022000014000008000000000000000304
:103B8000C00004C000040000080038080F3808080E
:103B9000380810000C300007E00003C000000000EF
:103BA000000000003F8000FFE0038070020F10065D
:103BB000708804C088048308047F8802C0900301D1
:103BC0002000FE400000080000180001F8003E0838
:103BD00001C20007020007E20000FE00001FC8004B
:103BE00001F800003800000804000807FFF807FF8C
:103BF000F804080804080804080804080806180857
:103C000003F41801E7F00001E000000000000000EC
:103C10003F8001FFE00380700200180400080400E8
:103C2000080400080400100600200780C0000000FF
:103C300004000807FFF807FFF80400080400080460
:103C4000000804001802001003807001FFE0007FEC
:103C50008000000004000807FFF807FFF8040808C8
:103C6000040808040808040808043E0804000806BC
:103C7000001801006000000004000807FFF807FFBB
:103C8000F8040808040800040800040800043E00C2
:103C90000600000600000180000000000000000097
:103CA0003F8001FFE0038070060018040008040252
:103CB000080402080203F00783F00002000002007B
:103CC00004000807FFF807FFF804080800080000D0
:103CD000080000080000080004080807FFF807FFB4
:103CE000F8040008000000000000040008040008B8
:103CF00004000807FFF807FFF804000804000804A0
:103D000000080000000000000000000000060000A5
:103D10000700000104000104000104000307FFFE86
:103D200007FFFC0400000400000400000400080772
:103D3000FFF807FFF8040C08001800003E0004C755
:103D4000800503C80600F8040038040018000008C5
:103D500004000807FFF807FFF80400080000080047
:103D6000000800000800000800000800001800001B
:103D70006000000004000807FFF807800807FC0047
:103D8000007FC00003F80007C00078000780080724
:103D9000FFF807FFF804000804000807FFF8070011
:103DA0000803C00000E000003800001E000007000B
:103DB0000001C00400F007FFF8040000000000004C
:103DC0007F8001FFE00380700600180400080400F3
:103DD0000806001803003001FFE0007F80000000AB
:103DE00004000807FFF807FFF804040804040004AF
:103DF0000400040400040400060C0003F80001F0B1
:103E000000000000000000007F8001FFE0038070E0
:103E10000600880400880400C806003C03003E0138
:103E2000FFE6007F8400000004000807FFF807FF9A
:103E3000F8040808040800040C00040F00040BC078
:103E40000610F003F03801E008000008000000014F
:103E5000E0F803F030063010041808041808040CC9
:103E600008040C080206180207F00781E0000000B1
:103E700001800006000004000004000004000807A0
:103E8000FFF807FFF8040008040000040000060023
:103E90000001800004000007FFE007FFF0040018A5
:103EA00000000800000800000800000800000804E6
:103EB000001007FFE004000004000006000007E017
:103EC0000007FE00041FE00001F80000380001E0D8
:103ED000043E0007C00006000004000004000007C4
:103EE000E00007FFC0041FF80007C007F80007FF45
:103EF00080043FF80007C004F80007000004000039
:103F000000000004000806001807C07805F1C8008A
:103F10003E00001F800463E80780F80600180400D4
:103F20000800000004000006000007800007E00809
:103F3000047C08001FF80007F800180804E00807D0
:103F40000000060000040000000000010008060058
:103F5000380400F80403E8040F08047C0805F0089E
:103F600007C00807001804006000000000000000FF
:103F700000000000000000000000003FFFFE2000E5
:103F800002200002200002200002200002000000A7
:103F900000000000000008000007000000C0000052
:103FA00038000006000001C000003000000E0000D4
:103FB00001000000000000000000200002200002BC
:103FC0002000022000022000023FFFFE000000004F
:103FD00000000000000000000000000000000000E1
:103FE0000008000010000030000020000030000039
:103FF00010000008000000000000000000000100A8
:1040000000010000010000010000010000010000AB
:10401000010000010000010000010000010000019A
:104020000000000000000000002000002000001040
:104030000000100000000000000000000000000070
:10404000000000000000000000F00019F8001B183C
:10405000002208002608002408002410003FF80071
:104060001FF800000800001800000004000007FF0F
:10407000F80FFFF0001818001008002008002008B2
:10408000003018001FF0000FC0000000000000000A
:1040900007C0001FF0001830002008002008002092
:1040A00008003C08001C1000006000000000000038
:1040B0000000000007C0001FF000381800200800B2
:1040C000200800200804101007FFF80FFFF0000080
:1040D000100000000000000000000007C0001FF0FA
:1040E00000123000221800220800220800320800C6
:1040F0001E10000E20000000000000002000002024
:104100000800200801FFF803FFF806200804200833
:104110000420080720000300000000000000000049
:10412000000E000E6E001FF30031B10020B1002020
:10413000B1003191001F13002E1E00200E00300030
:1041400000000004000807FFF80FFFF80010080047
:104150002000002000002008003FF8001FF80000A9
:1041600008000000000000000000002008002008F7
:10417000002008063FF8063FF8000008000008008D
:104180000008000000000000000000000000000027
:1041900003000003002001002001002003063FFE71
:1041A000063FFC00000000000000000000000004CA
:1041B000000807FFF80FFFF8000188000300002F38
:1041C000C00038F800203800200800000800000077
:1041D00000000000000004000804000804000807B4
:1041E000FFF80FFFF80000080000080000080000BA
:1041F00000000000002008003FF8003FF800100811
:10420000002000003FF8003FF800100800200000E8
:104210003FF8003FF8000008000000002008003FC1
:10422000F8003FF8001008001000002000002008EF
:10423000003FF8001FF80000080000000000000028
:1042400007C0000FF00018300030080020080020E0
:1042500008003008001830000FF00007C000000010
:10426000000000002001003FFF003FFF0010110090
:104270002009002008002008003038001FF0000F3F
:10428000C00000000000000007C0001FF000381848
:10429000002008002008002009001011001FFF0066
:1042A0003FFF00000100000000200800200800205F
:1042B00008003FF8003FF800080800100800200838
:1042C000002000003000003000000000000000006E
:1042D0000000000C78001E1800330800230800219D
:1042E000080021880021980030F0003860000000AC
:1042F00000000000200000200000200000FFF0036C
:10430000FFF800200800200800200800003000000E
:1043100000000000000000002000003FF0007FF8D7
:10432000000018000008000008002010003FF800FE
:104330007FF00000100000000000000020000030AE
:1043400000003C00003F800023F000007800007077
:10435000002380003C00003000002000002000000E
:104360003C00003FE00023F80000E0002700003E92
:1043700000003FE00021F80001E0003E00002000C6
:10438000000000002008002008003838003E6800C7
:1043900027800003C8002CF80038380020180020BF
:1043A00008000000000000002000003003003C0175
:1043B000003F830023EC000070002380003C0000DD
:1043C0002000002000000000000000000000003875
:1043D000080020380020F80023E8002F88003E085D
:1043E00000380800201800007000000000000000E5
:1043F00000000000000000000000000008000014A1
:10440000001FF7FC30000620000200000000000042
:10441000000000000000000000000000000000009C
:104420000000FFFFFF00000000000000000000008F
:104430000000000000000000000020000230000624
:104440001FF7FC001400000800000000000000003E
:1044500000000000000000000000001800006000E4
:104460000040000040000020000010000008000094
:104470000400000400000C000010000038B500F03B
:1044800013F8002203E038B500F00EF8012200F026
:1044900038F9204600F01EFC2846BDE838400122CD
:1044A0004FF4006100F0A2BD0446DFF8F054002292
:1044B0004FF40061284600F099BD10B586B0002089
:1044C0000090DFF8D844DFF8D804016841F0080113
:1044D0000160016801F0080100910099002100913C
:1044E000016841F00401016001A9006800F00400C6
:1044F000009000984FF43050019000F013F82046DF
:1045000000F01CFC4020019001A900F00BF8DFF83E
:10451000940400F013FC00224FF4005100F01DF849
:1045200006B010BD01200290002003900490704757
:1045300010B5DFF870440022402100F00EF864202E
:1045400000F0A0FD0122402100F007F8BDE8104076
:10455000322000F097BD4FF48061204600F046BD48
:1045600070B504460D46DFF8346400224FF4006154
:1045700000F01FF800F020F82A2000F0ABFB00F05C
:1045800015F800F075F800F070F800F015F82B2021
:1045900000F0A0FB00F00AF8280A00F09BFBE8B24C
:1045A00000F098FB3046BDE8704078E701224FF4F8
:1045B0008061304600F01ABD00224FF48061304621
:1045C00000F014BD2DE9F84305460C4616461F467B
:1045D000DFF8C89307FB06F800224FF4006100F0F3
:1045E0004DF800F04EF82A2000F074FB00F043F87C
:1045F000280A00F06FFBE8B200F06CFB16FA85F0B9
:1046000000F02EF87019401EC0B200F063FB00F0FD
:1046100038F82B2000F05EFB00F02DF800F028F8B1
:1046200000F023F817FA84F000F01AF83819401E49
:10463000C0B200F04FFB00F024F82C2000F04AFB41
:1046400000F019F8089C002704E000F011F800F0D1
:104650000CF87F1C4745F8D34846BDE8F8431EE7F1
:10466000401E0004000E00F035BBE0B200F032BB8B
:10467000200A00F02FBB01224FF48061484600F071
:10468000B5BC00224FF48061484600F0AFBC70B565
:10469000FFF70AFF00F024F92A2000F01BFB00F0CE
:1046A0002FF800F02AF800F028F8012000F012FBA3
:1046B000DF2000F00FFB00F013F92B2000F00AFBC5
:1046C00000F01EF800F019F800F017F8012000F0D3
:1046D00001FB3F2000F0FEFA00F002F92C2000F070
:1046E000F9FA00F00DF84FF49626FFF7BEFF761E9C
:1046F000FBD12846BDE87040D1E6002000F0EABAC0
:1047000001224FF48061284600F070BC80B5FFF7AD
:10471000D4FEFFF70DFFA44947F296700880782079
:1047200000F0B0FC1120FFF7A9FE782000F0AAFCF1
:1047300000F0C3F8C320FFF7A6FE00F0BEF89620F5
:10474000FFF7A1FE3620FFF799FE98480078EE2883
:1047500014BF2820E820FFF796FE2820FFF793FEDD
:104760003A20FFF78BFE5520FFF78DFEB420FFF7B0
:1047700085FE0120FFF787FEB720FFF77FFEC620EA
:10478000FFF781FEE820FFF779FE4020FFF77BFE70
:104790008A20FFF778FE0020FFF775FE0020FFF764
:1047A00072FE2920FFF76FFE1920FFF76CFEA5208F
:1047B000FFF769FE3320FFF766FEC120FFF75EFEBC
:1047C0000620FFF760FEC220FFF758FEA720FFF784
:1047D0005AFEC520FFF752FE1820FFF754FEE020D6
:1047E000FFF74CFEF020FFF74EFE0920FFF74BFECF
:1047F0000B20FFF748FE0620FFF745FE0420FFF7D9
:1048000042FE1520FFF73FFE2F20FFF73CFE54200D
:10481000FFF739FE4220FFF736FE3C20FFF733FE5C
:104820001720FFF730FE1420FFF72DFE1820FFF7AA
:104830002AFE1B20FFF727FEE120FFF71FFEF020D6
:10484000FFF721FE0920FFF71EFE0B20FFF71BFEDE
:104850000620FFF718FE0420FFF715FE0320FFF7E0
:1048600012FE2D20FFF70FFE4320FFF70CFE422023
:10487000FFF709FE3B20FFF706FE1620FFF703FEB9
:104880001420FFF700FE1720FFF7FDFD1B20FFF7A8
:10489000FAFD00F012F83C20FFF7F5FD00F00DF8EE
:1048A0006920FFF7F0FD782000F0ECFB2920FFF7EE
:1048B000E5FDBDE802400020E9E6F020DEE538B580
:1048C0001446FFF74DFEFFF7F0FD00F009F82C202D
:1048D00000F000FAFFF714FFFFF7CAFEE0B2D9E5D7
:1048E00000224FF48061284600F080BB2DE9FE4F86
:1048F00080460E46009613F0070018BF0120D90825
:1049000050FA81F059084843C0B202904FF4F07059
:10491000DFF89CB0DFF89C90CBF800000025A2F1F6
:1049200020008DF804001C4604E0BAF1010A12D1FF
:10493000681CC5B2029885422DDA0C2C1CBF102CC5
:10494000182C28D19DF804001B4A242111FB0020BB
:104950004FF0080A2F5C380648BFB9F8002004D48D
:104960009DF8300028B915480288B1B24046FFF7DB
:10497000A6FFDBF800007F00761C80450BD2009973
:10498000B6B2711AA142D0D1009E08F101011FFAFE
:1049900081F88045CCD3BDE8F78F0000000C0240C1
:1049A0003038024000080240688D002070AC0020C2
:1049B00094AC00206A8D0020203700086C8D002008
:1049C0002DE9F04782B082460D460AEB0207E8184F
:1049D0000A9C0B9E5FFA8AF9BFB21FFA80F80BE0BF
:1049E00000200090234616F8012B29465046FFF779
:1049F0007DFF60085AFA80FA307820385F2809D2A3
:104A00001FFA8AFABA4524BFCA4655FA84F5ADB2F0
:104A10004545E5D3BDE8F38780B5B048B04900F01F
:104A200007F800281CBFBDE8014000F071BC01BDC3
:104A300001604FF48271416000218160C1600221F8
:104A40000161012141614FF4007181611021C16157
:104A500000210162416281620A21C16200F05ABCF8
:104A600080B5A048A049FFF7E3FF00281CBFBDE8C0
:104A7000014000F04DBC01BD10B59C489C4C046049
:104A8000FFF7D7FF08B100F043FC0121204600F0FA
:104A900005FDBDE81040FF2000F016BD2DE9F041F6
:104AA000044686B021688E4A924E93484FF4806542
:104AB000914254D100210091416941F480514161FA
:104AC000416901F4805100F0F0F841F0010101600A
:104AD00001A9006800F0010000900098E02000F0BB
:104AE000DAF8864800F02AF9DFF81482C6F8008068
:104AF0004FF0C06777600020B060F0607061B06117
:104B0000F061306270623561304600F0EFFE08B14E
:104B100000F0FEFBE66408F148003066B463776697
:104B20004020B06635670020F0667067B067F067B8
:104B3000C6F88000C6F8840006F1600000F0D6FEDA
:104B400008B100F0E5FB06F16000A064C6F89840EB
:104B500000220321232001F068F8232071E0624A3B
:104B6000684F914270D100210091016941F4804168
:104B70000161016901F4804100F097F841F0020100
:104B80000160016801F0020100F095F84FF4005057
:104B900000F081F85C4800F0D1F80C20019001A9E8
:104BA00000F07AF8384600F0C9F80020C6F8C400D2
:104BB000C6F8C800C6F8CC00C6F8D400C6F8D800BD
:104BC000C6F8DC00C6F8E000C6F8E40006F1C0074D
:104BD000DFF83881C6F8C080C6F8D050384600F0FB
:104BE00085FE08B100F094FBE76408F11800C6F8F0
:104BF0002001C6F830510020C6F8240106F5907552
:104C00004020C6F82801C6F8F8400020C6F82C015C
:104C1000C6F83401C6F83801C6F83C01C6F84001B0
:104C2000C6F84401284600F061FE08B100F070FBB0
:104C3000A564C6F8584100220321242000F0F5FFA6
:104C4000242001F013F818E0294A914215D10021DF
:104C50000091016941F400410161016901F40041E1
:104C600000F029F84FF40060019000F009F84FF4CB
:104C7000A050019001A900F003F806B0BDE8F08152
:104C8000022002900020039003200490062005904B
:104C9000384600F053B801900220029000200390A3
:104CA0000320049005200590704700910099002191
:104CB00000910168704700910099002100910168FE
:104CC00041F00401016001A9006800F004000090B7
:104CD0000098704738B50446014D19E0FCAA002041
:104CE0000030014054AB002000380040ACAB002045
:104CF000003C00405CA80020303802400000024028
:104D00004064024000080240000402405860024033
:104D10000221284600F0D1FB0028F9D02146284680
:104D200000F0C9FB0121284600F0C7FB0028F9D09C
:104D3000284600F0BDFBC0B232BD00002DE9F847A7
:104D40000022AC4BDFF8B082DFF8B0924FF00F0AD0
:104D5000012707FA02FC0F680CEA0707674540F0D5
:104D6000B7804C68022C18BF122C10D1D40800EB6D
:104D7000840E02F00704DEF82050A4000AFA04F6BC
:104D8000B5430E6906FA04F42C43CEF820404FEAEE
:104D9000420E05680E79032404FA0EF4E44306F08B
:104DA0000306254006FA0EF6354305604D68012DD1
:104DB00018BF022D03D0112D18BF122D0FD18568F9
:104DC000CE68254006FA0EF635438560456825EA2B
:104DD0000C064D68C5F30015954035434560C56820
:104DE00025408C6804FA0EFE4EEA0504C4604C6847
:104DF000E4006DD5002400944FEA920CD9F80040ED
:104E000044F48044C9F8004002F00305D9F800409A
:104E100004F480440094AE00009C58F82C400AFA38
:104E200006F5AC43764DA84208BF002522D0754D4B
:104E3000A84208BF01251DD0734DA84208BF022516
:104E400018D0724DA84208BF032513D0704DA84258
:104E500008BF04250ED06F4DA84208BF052509D014
:104E60006D4DA84208BF062504D06C4DA8420CBF6A
:104E700007250825B5402C4348F82C40FD431C6805
:104E800005EA040E4C68E40348BF47EA0E0EC3F877
:104E900000E05C6805EA040E4C68A40348BF47EADA
:104EA0000E0EC3F804E09C6805EA040E4C68E402A8
:104EB00048BF47EA0E0EC3F808E0DC6805EA040CB8
:104EC0004C685FEA842E48BF47EA0C0CC3F80CC05C
:104ED000521C102AFFF43CAFBDE8F1872DE9F043E6
:104EE0000022444BDFF810910F25012606FA02F745
:104EF00007EA0106BE426ED103244FEA420E04FACD
:104F00000EF46FEA040C04680CEA04040460D4088C
:104F100000EB840E02F00704DEF82080A40005FAFE
:104F200004F428EA0404CEF8204084680CEA04045F
:104F30008460446824EA07074760C7680CEA0707EB
:104F4000C76002F0030C970859F827404FEA8C0C11
:104F500005FA0CFE0EEA0408294CA04208BF002402
:104F600022D0284CA04208BF01241DD0264CA042CC
:104F700008BF022418D0254CA04208BF032413D038
:104F8000234CA04208BF04240ED0224CA04208BFEC
:104F9000052409D0204CA04208BF062404D01F4C91
:104FA000A0420CBF0724082404FA0CF4A04512D137
:104FB00059F8274024EA0E0449F82740F6431F68B1
:104FC00037401F605F6837405F609F6837409F6071
:104FD000DF683E40DE60521C102A86D3BDE8F083B5
:104FE0000069084018BF012040B2704702B90904A7
:104FF00081617047003C014008380140443802405C
:10500000000002400004024000080240000C024080
:10501000001002400014024000180240001C024030
:1050200080B51E48016841F400710160016841F4D7
:1050300080610160016841F480710160032000F02B
:10504000E7FD002000F004F800F051FE002002BD52
:1050500010B50446124800684FF47A71B0FBF1F0C5
:1050600000F013FE002221464FF0FF3000F0DDFD7E
:10507000002010BD0B480168491C016070470948B9
:105080000068704711B581B0FFF7F9FF0446FFF7DC
:10509000F6FF0199001B8842F9D313BD003C024082
:1050A000708D00209CAC002030B593B0FFF7B8FFA6
:1050B00000F0B1F800214FF0006000F049FE00F070
:1050C00051FE00F01BFFFDF751F800F08AFFFFF7DB
:1050D000A3FCFFF7C5FC002202211C2000F0A5FD67
:1050E0001C2000F0C3FD002202211D2000F09DFDC8
:1050F0001D2000F0BBFD002202211E2000F095FDC6
:105100001E2000F0B3FD00220221322000F08DFDB0
:10511000322000F0ABFD01216E4800F0BFF96E486F
:10512000012100F0BBF90A20FFF7ACFF6B4C6C4982
:105130000422204601F00CF820784E2804BF607845
:10514000412805D1A0784E2804BFE0784F280BD025
:105150002078FF281CBF6078FF2807D0A078FF28A0
:105160001CBFE078FF2801D0002000E00120A071E2
:105170000122042104F10C0000F0EAFFFFF7C6FA57
:105180000020FEF7C3FA57494FF4FC600880002066
:10519000554908801420FFF775FF54490120086025
:1051A0004FF480515248FFF71BFF012801D0A0792E
:1051B00018B3504D95F9000001281CD10020207132
:1051C00004E00120FFF75EFFA068401CA06044F6E9
:1051D0002061A06888420EDA00F014FF207950B9EF
:1051E00028560228EDD144494448FCF7EEFF01203F
:1051F000207100202870002009E000F05FFA00A86C
:1052000001F00EF83E493F48FCF7DDFF01206071D8
:1052100001F0F8F9FEE700B597B0002000903A4899
:10522000016841F080510160006800F080500090FA
:10523000002000903548016841F480410160006819
:1052400000F48040009009200A9001200B900F90FC
:10525000022010904FF48000119004201290A8209A
:10526000139002201490072015900AA801F006FD63
:1052700000B1FEE70F2005900521022006900020D6
:1052800007904FF4A05008904FF48050099005A863
:1052900001F019FE00B1FEE7022001904FF400700A
:1052A000049001A801F0F0FE00B1FEE701F0CCFE91
:1052B0004FF47A71B0FBF1F000F0E7FC042000F04D
:1052C000F8FC002200214FF0FF3000F0AEFC17B0D8
:1052D00000BD0000003001400038004064AC0020F8
:1052E000E0FF7F006A8D00206C8D0020B482414277
:1052F000000C0240749900207CAC0020F09D000856
:1053000078AC0020DC9D000840380240007000406E
:10531000FEE7000010B5040001D1012010BD0020FF
:10532000A06294F9510020B984F850002046FFF79C
:10533000B5FB022084F851002068016821F040018B
:1053400001606068A1680843E16808432169084377
:1053500061690843A16901F400710843E1690843E8
:10536000216A0843A16A084321680860A069616A4C
:10537000000C00F004000843216848602068C169FF
:1053800021F40061C1610020606500F000B80120D7
:1053900084F85100002010BD38B5044621684868E3
:1053A0008A6802F04103012B06D1430604D5216C23
:1053B0002046BDE834400847930706D5030604D5C8
:1053C000616C2046BDE83440084712F4B07F5AD0E3
:1053D000830658D553060ED594F95130032B47D088
:1053E000636D43F00403636500230093CB6800936F
:1053F0008B680093009B93060CD5636D43F001030B
:105400006365002300938B6800930B6823F04003CF
:105410000B600099D10509D5616D41F00801616506
:10542000002100912168896800910099616D51B354
:1054300021684A6822F0E0024A60012184F8511094
:1054400010F0030F1CD020680FF245054168890851
:1054500089004160E06C18B10565E06C00F0BEFAAF
:10546000A06C80B10565A06CBDE8324000F0B6BA12
:1054700000200090C868009088680090009831BDB6
:10548000204600F001F831BD7047FFF7FDFF01BD78
:1054900080B5806B0021C187C186F6E700290168CD
:1054A00012BF41F040014FF6BF72114001607047DA
:1054B000C06880B27047C1607047806800220842AF
:1054C00018BF01221046704738B50446DFF804546F
:1054D00002212846FFF7F1FF0028F9D0214628468F
:1054E000FFF7E9FF01212846FFF7E7FF0028F9D081
:1054F0002846FFF7DDFFC0B232BDDFF8D8231168C0
:105500004FF6C773194011601168084310600121FC
:105510001046FFF7C3BF10B586B000200090DFF83B
:10552000B843DFF8B803016841F00401016001A944
:10553000006800F00400009000984FF400700190A3
:10554000012002900020039004902046FFF7F6FB14
:1055500000F006F8FFF790FA00F002F806B010BD70
:1055600001224FF400712046FFF740BD80B50122B3
:1055700000F00FF8BDE80240FF20A5E780B500224B
:1055800000F007F800F00BF810B1FFF7EFFF012073
:1055900002BD4FF40071DFF84003FFF727BD10B5DF
:1055A0006FF07F4400F054F8FF2801D1002010BDB7
:1055B000641EF7D1012010BD38B504464FF6FF75C3
:1055C00001E035B16D1E00F043F8A042ADB2F8D154
:1055D0000DB9FF2032BD002032BD38B504460D465E
:1055E000FE20FFF7E9FF28B1012032BD00F030F8BE
:1055F00004F8010B2846451E80B20028F6D100F0C1
:1056000027F800F025F8002032BD38B504460D46D5
:10561000FFF7C5FF08B1012032BD2846FFF754FF50
:10562000FD2D13D00025285DFFF74EFF6D1CB5F54D
:10563000007FF8DB00F00CF800F00AF800F008F842
:1056400000F01F00052801D0022032BD002032BD2D
:10565000FF2039E770B504460D461646FFF786FF72
:10566000FFF78CFF08B1FF2070BD44F04000FFF74A
:105670002BFF280EFFF728FF2802000EFFF724FF5C
:105680002804000EFFF720FFE8B2FFF71DFF3046A9
:10569000FFF71AFF0C2C04BFFF20FFF715FF1F2494
:1056A000FFF7D6FF010604D521464C1EC9B20029DA
:1056B000F6D170BD4FF4007120468EE72DE9F04120
:1056C00082B0FFF728FF3820FFF717FF0A24FFF703
:1056D000BFFF641EFBD11425952200210020FFF797
:1056E000B9FF0446012C46D17D4E002030704FF6A4
:1056F000FE7587224FF4D5710820FFF7ABFF012814
:1057000044D100270DF10008FFF7A2FF07F80800B9
:105710007F1C042FF8DB98F80200012804BF9DF8D5
:105720000300AA285FD100F0DDF801224FF080418C
:105730002920FFF78FFF04001FBF2846451E80B2B7
:105740000028F0D1ADB2002D4DD0012200213A2029
:10575000FFF780FF002846D10027FFF779FF07F801
:1057600008007F1C042FF8DB9DF8000040064CBFAA
:105770000620042008E02846451E80B20028ABD150
:105780005749002008702EE030702CE000F0AAF895
:1057900000F039F802280DDA0220307000F0A2F88B
:1057A00000F031F804001FBF2846451E80B20028D3
:1057B000F4D10DE001203070012200210120FFF71B
:1057C00049FF04001FBF2846451E80B20028F3D1C0
:1057D000ADB2002DD4D001224FF400711020FFF79C
:1057E00039FF0028CCD1FFF7C1FE0020FFF785FE6E
:1057F0003B48007808B1002003E0002C14BF20468D
:10580000AA20BDE8F68101220021292022E770B5F7
:105810000446334800781546062818BF4902012D72
:1058200008D11120FFF716FF060016D1FFF742FF3F
:10583000064612E001221220FFF70CFFFFF73AFFA5
:105840006D1E064604F50074EDB20DB1002EF5D0C4
:10585000012200210C20FFF7FDFEFFF787FE3046F6
:1058600070BD70B504461E4800780D4616460628E1
:1058700018BF6D02012E08D129461820FFF7EAFE55
:10588000050022D1FE2120461CE0012806D000F0B0
:1058900029F8012231461720FFF7DCFE01222946B4
:1058A0001920FFF7D7FE05000FD1FC212046FFF796
:1058B000ACFE761E04F50074F6B20EB10028F4D0EA
:1058C000FD210020FFF7A1FE0546FFF74FFE284609
:1058D00070BD0000003C004000080240303802402B
:1058E00071AC0020012200213720B3E638B5044610
:1058F000FFF7C5FB05460CB9012032BD002084F836
:105900003400022084F83500206801684908490005
:10591000016020680168C90708D5FFF7B0FB401B8C
:105920000628F6D320206065032054E00168DFF8E4
:105930007C22114062681143A2681143E26811435E
:105940002269114362691143A2691143E26911435B
:10595000226A1143626A042A03D1E26A236B1A4362
:105960001143016020684169626AC90842EAC101C5
:10597000042A08D1A26AA36911439BB9002A18BF5F
:10598000022A22D018D34161204600F017F9E26DB7
:105990003F219140816000206065012084F835003E
:1059A000002032BDB3F5005F0BD1002A18BF022AD8
:1059B0000ED00AD3032AE6D1E26AB2F1C07FE2D167
:1059C00006E0022A04D9D21EDDD1E26AD201DAD57C
:1059D00040206065012084F8350032BD90F9351013
:1059E000022903D08021416501207047052180F8FC
:1059F00035100068016849084900016000207047BF
:105A0000F8B50446002000904FF416516A48A66D80
:105A100000683768B0FBF1F5E16D082000FA01F18C
:105A20000F420ED021680A6852070AD50A6822F090
:105A300004020A60E16D8840B060606D40F00100D2
:105A40006065E16D5A488840074208D0216849697D
:105A5000090604D5B060606D40F002006065E16D3C
:105A600054488840074208D021680968890704D54E
:105A7000B060606D40F0040060651020E16D88400A
:105A800007421DD021680968090719D5B060206850
:105A90000168490308D5006800030CD5A16C080013
:105AA0000ED0204688470BE00168C90503D4016881
:105AB00021F008010160216C08001CBF20468847C6
:105AC000E16D2020884007424BD021680968C90653
:105AD00047D5B060206894F935100529016823D1B5
